:1000000014C1000043C1000041C100003FC1000015
:100010003DC100003BC1000039C1000037C10000F4
:1000200035C1000033C1000031C100002FC1000004
:100030002DC100003EC5000029C1000027C10000FD
:1000400025C100005FC6000021C100001FC10000E3
:100050001DC100001BC1000019C10000E0C4000068
:1000600015C10000A1C3000076C300000FC100004D
:100070000DC100000BC1000009C1000007C1000054
:1000800014C6000003C1000001C10000FFC0000051
:10009000FDC00000FBC00000F9C00000F7C0000078
:1000A000F5C00000F3C00000D3C50000EFC00000A1
:1000B000EDC00000EBC00000E9C000009CC50000DE
:1000C000E5C00000E3C00000E1C00000DFC00000A8
:1000D000DDC00000DBC00000D9C00000D7C00000B8
:1000E000D5C000009D02A0028F0293029902D702A0
:1000F000A402A802AE02B202B602BC02C002C4024E
:10010000D702CA02CE02D202000022002500280037
:100110002B002E003100340002010000050108010F
:100120000B01000020002300260029002C002F00D6
:1001300032000001000003010601090100000A0B62
:1001400002090C0D0E080703040100000000000066
:10015000000000000000000000000000000000009F
:10016000000000000000000012111000000000005C
:10017000000000000000000000000000000000007F
:10018000000000002100240027002A002D0030007C
:10019000330001010000040107010A0101021020DF
:1001A00020080810204010204080020102010804AD
:1001B0000201010204081020408080402010080441
:1001C000020180040201804020100804020108049A
:1001D00002010102040810204080010204081020DE
:1001E0004080050505050705080808080202020207
:1001F0000A0A0808040404040101010101010101C3
:100200000303030303030303040707070C0C0C0C8D
:100210000C0C0C0C02020202060606060606060676
:100220000B0B0B0B0B0B0B0BAE0D11241FBECFEFEB
:10023000D1E2DEBFCDBF00E00CBF12E0A0E0B2E033
:10024000EEE1FDE100E00BBF02C007900D92A43388
:10025000B107D9F724E0A4E3B2E001C01D92A335B1
:10026000B207E1F711E0C5E1D1E000E006C0219757
:100270000109802FFE010E94810EC431D10780E068
:100280000807A9F70E94D20A0C948D0EB9CECF921E
:10029000DF92EF92FF920F931F93CF93DF936C0146
:1002A0007A018B01C0E0D0E0CE15DF0581F0D801E6
:1002B0006D918D01D601ED91FC910190F081E02DC1
:1002C000C6011995892B11F02196EECF7E01C70149
:1002D000DF91CF911F910F91FF90EF90DF90CF9022
:1002E0000895089580E090E00895FC01538D448DB9
:1002F000252F30E0842F90E0821B930B541710F0D1
:10030000CF96089501970895FC01918D828D9817DD
:1003100061F0828DDF01A80FB11D5D968C91928DE9
:100320009F5F9F73928F90E008958FEF9FEF0895E6
:10033000FC01918D828D981731F0828DE80FF11DAF
:10034000858D90E008958FEF9FEF0895FC01918DCA
:10035000228D892F90E0805C9F4F821B91098F73C3
:100360009927089582E193E0F1DF21E0892B09F4D8
:1003700020E0822F0895FC01848DDF01A80FB11DBC
:10038000A35ABF4F2C91848D90E001968F739927CB
:10039000848FA689B7892C93A089B1898C918370A9
:1003A00080648C93938D848D981306C00288F389A2
:1003B000E02D80818F7D80830895EF92FF920F93CF
:1003C0001F93CF93DF93EC0181E0888F9B8D8C8D01
:1003D000981305C0E889F989808185FD25C0F62E2E
:1003E0000B8D10E00F5F1F4F0F731127E02E8C8DC8
:1003F000E8120BC00FB607FCFACFE889F9898081B3
:1004000085FFF5CFCE01B7DFF2CF8B8DFE01E80F70
:10041000F11DE35AFF4FF0829FB7F8940B8FEA89E2
:10042000FB89808180620AC09FB7F894EE89FF89BA
:100430006083E889F98980818370806480839FBFAD
:1004400081E090E0DF91CF911F910F91FF90EF90AD
:100450000895CF93DF93EC01888D8823C1F0EA895A
:10046000FB89808185FD05C0A889B9898C9186FDAD
:100470000EC00FB607FCF5CF808185FFF2CFA889AB
:10048000B9898C9185FFEDCFCE0175DFE8CFDF9183
:10049000CF91089580E090E0892B19F063DF8111FE
:1004A00025C080E090E0892B41F080E090E0892B2E
:1004B00021F00E94000081111CC080E090E0892B97
:1004C00041F080E090E0892B21F00E940000811132
:1004D00013C080E090E0892BA1F080E090E0892BB0
:1004E00081F00E94000081110AC008950E9400005E
:1004F000D8CF0E940000E1CF0E940000EACF0C9408
:100500000000089590E0FC013197E231F10508F018
:100510004EC08827EE58FF4F8F4F0C94810E80916C
:1005200080008F7703C0809180008F7D8093800052
:10053000089580918000877FF9CF84B58F7702C0BE
:1005400084B58F7D84BD08958091B0008F7703C0FE
:100550008091B0008F7D8093B000089580919000CD
:100560008F7707C0809190008F7D03C080919000AD
:10057000877F8093900008958091A0008F7707C0B7
:100580008091A0008F7D03C08091A000877F809321
:10059000A0000895809120018F7707C080912001ED
:1005A0008F7D03C080912001877F80932001089573
:1005B000CF93DF93282F30E0F901E45CFE4F849164
:1005C000F901E456FE4FD491F901EE51FE4FC4916A
:1005D000CC2389F0811196DFEC2FF0E0EE0FFF1FA6
:1005E000EE5DFE4FA591B491EC91ED2381E090E09A
:1005F00021F480E002C080E090E0DF91CF91089587
:10060000CF93DF9390E0FC01E456FE4F2491FC0170
:10061000EE51FE4F8491882361F190E0880F991F7D
:10062000FC01EE57FE4FC591D491FC01E85FFE4FEF
:10063000A591B491611109C09FB7F8948881209564
:1006400082238883EC912E230BC0623061F49FB724
:10065000F8948881322F309583238883EC912E2B58
:100660002C939FBF06C08FB7F894E8812E2B288368
:100670008FBFDF91CF9108953FB7F89480910B031E
:1006800090910C03A0910D03B0910E0326B5A89B89
:1006900005C02F3F19F00196A11DB11D3FBFBA2F14
:1006A000A92F982F8827820F911DA11DB11DBC0174
:1006B000CD0142E0660F771F881F991F4A95D1F739
:1006C00008958F929F92AF92BF92CF92DF92EF9256
:1006D000FF926B017C01D0DF4B015C01C114D1049E
:1006E000E104F104E9F0C8DFDC01CB0188199909C4
:1006F000AA09BB09883E9340A105B10578F321E022
:10070000C21AD108E108F10888EE880E83E0981E2D
:10071000A11CB11CC114D104E104F10421F7DECF06
:10072000FF90EF90DF90CF90BF90AF909F908F9011
:100730000895BC016E5F7F4FDC01ED91FC9101904B
:10074000F081E02D40E0199591E0811190E0892F32
:1007500008950E94890E1F920F920FB60F921124D6
:100760000BB60F922F933F934F935F936F937F93AB
:100770008F939F93AF93BF93EF93FF9382E193E0A7
:10078000FADDFF91EF91BF91AF919F918F917F9192
:100790006F915F914F913F912F910F900BBE0F90F2
:1007A0000FBE0F901F9018951F920F920FB60F92C9
:1007B00011240BB60F922F938F939F93EF93FF9378
:1007C000E0912203F09123038081E0912803F091CE
:1007D000290382FD12C0908180912B038F5F8F735C
:1007E00020912C03821751F0E0912B03F0E0EE5E94
:1007F000FC4F958F80932B0301C08081FF91EF9177
:100800009F918F912F910F900BBE0F900FBE0F9065
:100810001F9018951F93CF93DF93282F30E0F90195
:10082000E45CFE4F8491F901E456FE4FD491F90146
:10083000EE51FE4FC491CC23B9F0162F811162DE28
:10084000EC2FF0E0EE0FFF1FE85FFE4FA591B49193
:100850009FB7F894111104C08C91D095D82302C091
:10086000EC91DE2BDC939FBFDF91CF911F91089518
:10087000CF92DF92EF92FF920F931F93CF93DF936C
:100880006C018B017A01EC01CC5CDD4F888187FF24
:1008900004C0FB011182108224C02CE02C9DC001F9
:1008A0002D9D900D11242881AC01420F511D27FD73
:1008B0005A9520913F0430E04217530794F4288161
:1008C000AC01420F511D27FD5A959A01FA01EE0F16
:1008D000FF1F2E0F3F1FF901E155FC4F208126FD20
:1008E00019C088818F5F88832CE02C9DC0012D9DCD
:1008F000900D11242881AC01420F511D27FD5A95FE
:1009000020913F0430E042175307B4F428812C3083
:100910003CF112C02881820F911D27FD9A95FC01A0
:10092000EE0FFF1F8E0F9F1FFC01E155FC4F8081D2
:1009300060E08F736FDFD5CFF801808191810496DD
:1009400080349C4918F480E49CE904C0F80180815B
:1009500091810496F701918380838FEF888344C04F
:10096000F801408151812881BC01620F711D27FD72
:100970007A959B01FB01EE0FFF1F2E0F3F1FF90120
:10098000E155FC4F21813281240F351FF70131835E
:1009900020832881AC01420F511D27FD5A959A01F1
:1009A000FA01EE0FFF1F2E0F3F1FF901E155FC4F1B
:1009B000208126FF19C02881820F911D27FD9A955D
:1009C000FC01EE0FFF1F8E0F9F1FFC01E155FC4F36
:1009D000808161E08F73DF91CF911F910F91FF9024
:1009E000EF90DF90CF9016CFDF91CF911F910F91B5
:1009F000FF90EF90DF90CF900895CF93C82F61E0E4
:100A000009DF64E670E080E090E05BDE60E08C2F60
:100A100001DF64E670E080E090E0CF9152CE1F925B
:100A20000F920FB60F9211242F933F938F939F93A2
:100A3000AF93BF938091070390910803A09109039E
:100A4000B0910A033091060323E0230F2D3720F4E1
:100A50000196A11DB11D05C026E8230F0296A11D18
:100A6000B11D209306038093070390930803A0937E
:100A70000903B0930A0380910B0390910C03A0919A
:100A80000D03B0910E030196A11DB11D80930B03C0
:100A900090930C03A0930D03B0930E03BF91AF91FD
:100AA0009F918F913F912F910F900FBE0F901F90AC
:100AB00018951F920F920FB60F9211240BB60F923A
:100AC0002F933F934F935F936F937F938F939F9356
:100AD000AF93BF93EF93FF938091380269DD20912C
:100AE0003B0230913C022F5F3F4F30933C022093FA
:100AF0003B0290910503943618F095E090933902EB
:100B0000909139029330B9F018F4923039F057C00F
:100B1000943059F1953009F44CC051C081114FC047
:100B200020913B0230913C022436310508F443C049
:100B3000109205031CC0813009F041C0E09105030B
:100B400091E09E0F90930503F0E020913B023091DD
:100B50003C02EE0FFF1FE85CFD4F368325831092A9
:100B60003C0210923B0294E021C0811117C0E09139
:100B7000050391E09E0F90930503F0E020913B0266
:100B800030913C02EE0FFF1FE85CFD4F368325835A
:100B900010923C0210923B0293E008C020913B026D
:100BA00030913C022536310550F095E090933902A2
:100BB00006C0811104C010923C0210923B02909139
:100BC0003A02992329F0811102C02F9A01C02F986F
:100BD000FF91EF91BF91AF919F918F917F916F9115
:100BE0005F914F913F912F910F900BBE0F900FBED1
:100BF0000F901F9018951F920F920FB60F9211240D
:100C00000BB60F922F933F934F935F936F937F9306
:100C10008F939F93AF93BF93EF93FF9348E251E07D
:100C200064E271E080E090E023DEFF91EF91BF91FC
:100C3000AF919F918F917F916F915F914F913F9174
:100C40002F910F900BBE0F900FBE0F901F90189515
:100C50001F920F920FB60F9211240BB60F922F9383
:100C60003F934F935F936F937F938F939F93AF9334
:100C7000BF93EF93FF9348EA50E064EA70E083E0AB
:100C800090E0F6DDFF91EF91BF91AF919F918F9131
:100C90007F916F915F914F913F912F910F900BBE7C
:100CA0000F900FBE0F901F9018951F920F920FB6C6
:100CB0000F9211240BB60F922F933F934F935F9394
:100CC0006F937F938F939F93AF93BF93EF93FF9314
:100CD00048E950E064E970E082E090E0C9DDFF910E
:100CE000EF91BF91AF919F918F917F916F915F91A4
:100CF0004F913F912F910F900BBE0F900FBE0F9011
:100D00001F9018951F920F920FB60F9211240BB6D9
:100D10000F922F933F934F935F936F937F938F9394
:100D20009F93AF93BF93EF93FF9348E850E064E83D
:100D300070E081E090E09CDDFF91EF91BF91AF9179
:100D40009F918F917F916F915F914F913F912F91E3
:100D50000F900BBE0F900FBE0F901F901895089527
:100D60008EBD00000DB407FEFDCF8EB508958CBD7D
:100D70009DBD08951F93CF93DF93EC01162F83E55C
:100D800090E0F5DF60E08E8545DD812F8068E8DF4B
:100D900080E0E6DF182F61E08E853CDD812FDF915A
:100DA000CF911F9108950F931F93CF93DF93EC0181
:100DB000062F142F83E590E0DADF60E08E852ADDD0
:100DC000802FCEDF812FCCDF61E08E85DF91CF9148
:100DD0001F910F911FCD8F929F92AF92CF92EF9262
:100DE000FF920F931F93CF93DF9300D01F921F9218
:100DF000CDB7DEB74C0182E08D8340E064E2C401F0
:100E0000D2DF40E066E2C401CEDF46E268E4C4011E
:100E1000CADF86E28B838D81823028F16CE1C401C8
:100E2000A9DF482F4F776CE1C401BDDF87E08C83D9
:100E3000A12CC12CCE0104967C018E010B5F1F4FAB
:100E40009E012F5F3F4F41E0BE016D5F7F4FC401A8
:100E5000ACD281110BC08D81823039F481E09C814C
:100E6000911104C008C084E001C081E091E08230AB
:100E700019F090E001C091E0892F0F900F900F9032
:100E80000F900F90DF91CF911F910F91FF90EF90F6
:100E9000CF90AF909F908F900895CF92DF92EF9276
:100EA000FF920F931F93CF93DF93EC016B01142FED
:100EB000790140E062E077DF44E06AE0CE0173DF71
:100EC00040E864E1CE016FDFA601612FCE0141D27F
:100ED00043E062E0CE0167DF08E813E16AE0CE019B
:100EE00049DF82FF10C040E062E0CE015CDF64E4D5
:100EF000CE0140DFF701808362E4CE013BDFF701E2
:100F0000818380E004C00150110941F783E0DF9143
:100F1000CF911F910F91FF90EF90DF90CF900895A8
:100F20002F923F924F925F926F927F928F929F92F9
:100F3000AF92BF92CF92DF92EF92FF920F931F93E7
:100F4000CF93DF93CDB7DEB72C970FB6F894DEBF03
:100F50000FBECDBF413508F006C1342E3B014C0118
:100F60006CE108DF482F4F776CE1C4011CDF2224BD
:100F7000239422E0221691F033E02316E1F081E081
:100F80002812F3C083E989833320D1F081E0F30193
:100F90009081953008F480E0B12C17C0F5E9F98311
:100FA000332081F081E0F3019081983008F480E0F3
:100FB00043E0B42E0AC087E9898336E0B32E04C02B
:100FC000B12C02C023E0B22E80E0D32CF8E0BF9E0B
:100FD000D0181124D7FCD12C882321F098E89B83CA
:100FE00033E001C032E021E09D2D977009F420E04C
:100FF0009D2D959595959595290F31F4882309F4A4
:101000008FC028E0D20E8CC0811102C094E001C0D4
:1010100093E0291708F4922FEB2DF0E03196E60DBE
:10102000F71D232F4191A1E0B0E0AC0FBD1FA20F2F
:10103000B11D4C932F5F422F431B491798F3DECF0E
:101040008111DAC03FE13D150CF491C080E2D82E49
:1010500080E78A839B818C8189279D8189279E8156
:1010600089278F839E01285F3F4F47E0BE016F5F56
:101070007F4FC40112DF8111A0C01A8693E09B87C5
:10108000FE0137962F01F9E0FC87CA844C2D42956A
:10109000407F4C0D6AE1C40186DEA12CFE013A9628
:1010A0007F018E01055F1F4F92014C85BE016F5F6E
:1010B0007F4FC4017AD1182F823009F0C1CF6CE183
:1010C000C40158DE85FD98C08F7109F480E2282F95
:1010D00030E04D2DDD0C550B421753070CF045C089
:1010E000D82EC901019787709927259525952595B3
:1010F00031E0320F21E0811101C020E0230FE1E057
:10110000F0E0EC0FFD1FE20FF11D21E030E002C026
:10111000220F331F8A95E2F7C9019081892B8083C2
:101120003FE13D150CF494CF9D2D97709A878D2D3E
:101130008595859585958E5F292F30E1839F200DBC
:1011400011242A8321E0911101C020E0280F2C876F
:1011500044244394512C4C0E5D1E480E511C99E0C2
:10116000981B9B8792CF16E047C015E045C08B8146
:10117000883809F43EC082E094E0EB2DF0E031962F
:10118000E60DF71D980FA1E0B0E0AC0FBD1FA80F52
:10119000B11D2C9121938F5F8913F5CF8B858330FF
:1011A00021F58A85811121C09E012D5F3F4F41E0CD
:1011B000B201C40172DE882311F0182F1DC09B817B
:1011C000F2018181981313C09C81828198130FC012
:1011D000808182FF02C02394CCCEF3018387822DCD
:1011E000880F820D8F5F808307C011E005C017E074
:1011F00003C083E093E0C1CF812F2C960FB6F89403
:10120000DEBF0FBECDBFDF91CF911F910F91FF9039
:10121000EF90DF90CF90BF90AF909F908F907F9096
:101220006F905F904F903F902F900895009761F0DE
:10123000FC0101900020E9F73197AF01481B590BE1
:10124000BC0182E193E023C880E090E00895CF9252
:10125000DF92EF92FF92DC01A03282E0B8070CF03F
:101260003CC0B7FD06C0A53BB1052CF0A4EBB0E037
:1012700002C0A0E0B0E08091410428E830E06901BC
:10128000C81AD10887FDD394CC0CDD1CCC0CDD1C16
:101290000D2C000CEE08FF088091420428E532E096
:1012A000281B310987FD3395220F331F220F331F6F
:1012B000A901330F660B770B9A01AB012C193D097D
:1012C0004E095F09DBD424EB30E040E050E0B0D4BD
:1012D000C20ED31EE41EF51ED60190914004903339
:1012E00098F58091410448E850E0481B510987FD7A
:1012F0005395440F551F440F551FA417B5078CF085
:101300008091420428E532E0281B310987FD33959E
:10131000220F331F220F331FAD012A173B070CF496
:10132000A90142505109440F551F2FB7F894892F36
:1013300090E0FC01EE0FFF1F8E0F9F1FFC01E15597
:10134000FC4F528341832FBFFF90EF90DF90CF90EF
:101350000895DF92EF92FF920F931F93CF93DF9345
:101360008C01F62ED42EE52E83E590E000DD60E0C2
:10137000F80186854FDA82E1F3DCCD2DDE2DCE013A
:101380008F0D911D7C01EC16FD0619F08991E8DCAA
:10139000FACF61E0F80186853DDADF91CF911F91A8
:1013A0000F91FF90EF90DF90DACC4F925F926F92A7
:1013B0007F928F929F92AF92BF92CF92DF92EF92E5
:1013C000FF920F931F93CF93DF931F921F92CDB77E
:1013D000DEB74C012B01D42E3901E114F10419F0D0
:1013E000F701408101C040E0B42EF0E1CF9EB00C87
:1013F000112440E062E0C401D6DC4FE768E0C4019C
:10140000D2DC40E864E1C401CEDCA2016D2DC40150
:10141000A0DF4B2D6AE1C401C6DC4CE062E0C401F0
:10142000C2DC6AE1C401A6DC482F40686AE1C4015D
:10143000BADC80ED482E87E0582E68E0C4019ADCC3
:10144000982F907341F480FD04C081E0481A510840
:10145000A1F783E094C06CE0C4018CDCD82E8371CA
:1014600009F08AC06114710409F450C00115110516
:1014700009F44CC064E1C4017DDCB82EF801808120
:101480008B1508F473C0B082BB20B1F183E590E006
:101490006EDC60E0F4018685BDD9BA9482E960DC37
:1014A000CC20A1F08FEF90E02C0101C0440CCA9435
:1014B000EAF782E955DC242D2095F30190819223EF
:1014C0008421892B8083CC24C39401C0C12C4C2C53
:1014D000512C460C571CCB1430F482E941DCF2014C
:1014E0008083C394F4CF80E03BDCF201808361E031
:1014F000F40186858FD933DC68E1C4013BDC877059
:10150000E114F10421F0F701808301C080E0D3FCF5
:101510002FC06114710471F10115110559F1AA2050
:1015200049F1F8014081413021F4843039F58FEFE1
:1015300026C0423018F1811121C042509E012F5F18
:101540003F4FB301C401A9DC811119C0F8018081AA
:10155000680E711CF30132979081898198130EC037
:10156000319690818A81981309C004C084E007C035
:1015700082E005C080E003C081E001C087E00F90F9
:101580000F90DF91CF911F910F91FF90EF90DF901F
:10159000CF90BF90AF909F908F907F906F905F9013
:1015A0004F900895CF93DF93CDB7DEB7A1970FB6D5
:1015B000F894DEBF0FBECDBF789484B5826084BD41
:1015C00084B5816084BD85B5826085BD85B5816047
:1015D00085BD80916E00816080936E0010928100C5
:1015E0008091810082608093810080918100816080
:1015F0008093810080918000816080938000809141
:10160000B10084608093B1008091B00081608093CC
:10161000B000809191008260809391008091910050
:101620008160809391008091900081608093900010
:101630008091A10082608093A1008091A1008160CF
:101640008093A1008091A00081608093A000809190
:10165000210182608093210180912101816080932A
:1016600021018091200181608093200180917A0086
:10167000846080937A0080917A00826080937A00FF
:1016800080917A00816080937A0080917A008068EE
:1016900080937A001092C10060E086E20E9400030D
:1016A00061E088E10E94000361E086E10E9400039E
:1016B00061E08CE10E94000360E086E30E94000389
:1016C00080914004803308F051C061E089E00E94BD
:1016D000000380914004E82FF0E09F01220F331FA8
:1016E000E20FF31FE155FC4F9081907C996090834D
:1016F00010924104109242046CE0F7D29CE0899F62
:10170000B001112440E050E09B01240F351FF90186
:10171000EE0FFF1F2E0F3F1FF901E155FC4F908187
:1017200096FD17C04F5F5F4F4C30510569F7813010
:1017300009F0E8C11092800082E08093810010924D
:10174000850010928400B19A80916F00826080932E
:101750006F00E0914004F0E0CF01880F991FE80F7F
:10176000F91FE155FC4F808180648083E091220362
:10177000F091230382E08083E0911E03F0911F0328
:101780001082E0912003F09121038FEC808310926E
:101790002A03E0912603F091270386E08083E091FD
:1017A0002403F0912503808180618083E0912403EC
:1017B000F0912503808188608083E0912403F0917B
:1017C0002503808180688083E0912403F0912503C4
:1017D00080818F7D80831FB7F89480910F038111E2
:1017E00026C0E7E1F2E08491E1EDF1E09491E82F89
:1017F000F0E0EE0FFF1FEE57FE4FA591B491EC9174
:10180000E92319F461E085E305D861E085E30E94EE
:1018100000038CB580618CBD8CB580648CBD61E0AB
:1018200084E30E94000361E083E30E94000380914F
:101830000F038F5F80930F031FBF61E080915104FE
:101840000E94000361E0809151040E940A0480918B
:1018500052048F3FD1F060E00E9400038091520457
:101860000E94D802892B89F461E0809152040E9481
:10187000000361E0809152040E940A0462E370E078
:1018800080E090E00E94610311C04FE062E083E4D9
:1018900094E089DA62E370E080E090E00E94610306
:1018A00062E083E494E066DA84FDFACF40E064E22B
:1018B00083E494E078DA40E066E283E494E073DA6B
:1018C00046E268E483E494E06EDA40E864E583E4A9
:1018D00094E069DA49EA66E583E494E064DA43E097
:1018E00068E583E494E05FDA48EE6AE583E494E037
:1018F0005ADA40E46AE283E494E055DA4DE362E2C6
:1019000083E494E050DA68E283E494E033DA982FD9
:101910009370933031F0482F436068E283E494E0A1
:1019200042DA809100029091010291DC86E292E01D
:101930007DDC81E392E07ADC50E4B52E6AE0C62ECD
:10194000D12CE12CF12C0AEA10E080917B00877FFA
:1019500080937B00B0927C0080917A0080648093B9
:101960007A0080917A0086FDFCCF809178002091EA
:10197000790090E0922B2C01092E000C6608770864
:1019800097FF1FC06DE282E193E00E94DD012227F4
:101990003327A901241935094609570919A2FE015F
:1019A000B1964F01CA01B901A70196016DD1605DE1
:1019B000F40162934F01211531054105510591F75D
:1019C00014C0A301920119A2CE0181964C01CA0153
:1019D000B901A701960158D1605DF40162934F01EE
:1019E000211531054105510591F7C4011FDC81E343
:1019F00092E01CDC83E494E0EED9882309F47FC0F4
:101A000083E494E00E949903882309F478C020912C
:101A1000450430E0809110039091110342E0842E40
:101A200042E0942E46E454E0A6E0B2E0BD016650E8
:101A30007240621773077CF4FA016191AF017D91E6
:101A4000671721F0F4017081671301C00196FFEF61
:101A50008F1A9F0AEBCF1092110310921003049774
:101A600049F488E190E00E94FD0410920102109276
:101A7000000205C086E190E00E94FD0440C0809015
:101A80000002909001026BEA86169104A4F4C4014E
:101A9000DEDB64E070E080E090E00E94610361E0E2
:101AA0008CE10E940A048FEF881A980A9092010232
:101AB00080920002E4CF60EA7FE080E090E00E9444
:101AC0006103109301020093000280900002909045
:101AD000010297FC10C0C401BADB64E070E080E052
:101AE00090E00E94610391E0891A910890920102AE
:101AF00080920002EACF60E08CE10E940A040E941A
:101B00004A0223CF823061F41092900080939100BA
:101B1000109295001092940088BB8093710019CEAA
:101B2000833069F41092A00082E08093A1001092AB
:101B3000A5001092A40089BB809372000ACE811187
:101B400008CE1092200182E080932101109225019D
:101B5000109224018ABB80937300FBCD1092150371
:101B60001092140388EE93E0A0E0B0E08093160397
:101B700090931703A0931803B09319038EE092E09B
:101B8000909313038093120385EC90E090931F03CE
:101B900080931E0384EC90E09093210380932003B4
:101BA00080EC90E0909323038093220381EC90E0FB
:101BB000909325038093240382EC90E09093270375
:101BC0008093260386EC90E090932903809328036A
:101BD00010922B0310922C0310922D0310922E03BF
:101BE00080E292E0909344048093430485E38093E1
:101BF000510485E08093520480913F048033A0F427
:101C000091E0980F90933F048093400490E0FC0192
:101C1000EE0FFF1F8E0F9F1FFC01E155FC4F88EB5D
:101C20009BE09283818308958FEF80934004089511
:101C3000052E97FB16F400940FD057FD05D024D045
:101C400007FC02D046F408C0509540953095219588
:101C50003F4F4F4F5F4F08959095809570956195D8
:101C60007F4F8F4F9F4F089531D0A59F900DB49F08
:101C7000900DA49F800D911D11240895B7FFF4CFFE
:101C8000F3DF821B930B0895A1E21A2EAA1BBB1B44
:101C9000FD010DC0AA1FBB1FEE1FFF1FA217B30738
:101CA000E407F50720F0A21BB30BE40BF50B661F4E
:101CB000771F881F991F1A9469F760957095809512
:101CC00090959B01AC01BD01CF010895A29FB00189
:101CD000B39FC001A39F700D811D1124911DB29F60
:101CE000700D811D1124911D0895991B79E004C088
:101CF000991F961708F0961B881F7A95C9F780954B
:101D00000895EE0FFF1F881F8BBF0790F691E02DFF
:0E1D1000199481E090E0F89400C0F894FFCFA1
:101D1E000100D4338363C0E685A700000000DD0117
:101D2E00470175012902A6018401980100000000F7
:101D3E009007EB0699035343414E20434152443AD8
:041D4E00000D0A007A
:020000023000CC
:10E000000D9489F10D94B2F10D94B2F10D94B2F129
:10E010000D94B2F10D94B2F10D94B2F10D94B2F1F0
:10E020000D94B2F10D94B2F10D94B2F10D94B2F1E0
:10E030000D94B2F10D94B2F10D94B2F10D94B2F1D0
:10E040000D94B2F10D94B2F10D94B2F10D94B2F1C0
:10E050000D94B2F10D94B2F10D94B2F10D94B2F1B0
:10E060000D94B2F10D94B2F10D94B2F10D94B2F1A0
:10E070000D94B2F10D94B2F10D94B2F10D94B2F190
:10E080000D94B2F10D94B2F10D94B2F10D94B2F180
:10E090000D94B2F10D94B2F10D94B2F10D94B2F170
:10E0A0000D94B2F10D94B2F10D94B2F10D94B2F160
:10E0B0000D94B2F10D94B2F10D94B2F10D94B2F150
:10E0C0000D94B2F10D94B2F10D94B2F10D94B2F140
:10E0D0000D94B2F10D94B2F10D94B2F10D94B2F130
:10E0E0000D94B2F141546D656761323536300041AF
:10E0F000726475696E6F206578706C6F72657220DE
:10E1000073746B3530305632206279204D4C530099
:10E11000426F6F746C6F616465723E004875683F52
:10E1200000436F6D70696C6564206F6E203D200048
:10E130004350552054797065202020203D20005FF9
:10E140005F4156525F415243485F5F3D2000415658
:10E1500052204C696243205665723D20004743437C
:10E160002056657273696F6E203D20004350552024
:10E1700049442020202020203D20004C6F7720663D
:10E18000757365202020203D20004869676820665F
:10E190007573652020203D200045787420667573D6
:10E1A00065202020203D20004C6F636B2066757336
:10E1B000652020203D20004D617220203720323024
:10E1C000313300312E362E3800342E332E350056A2
:10E1D00023202020414444522020206F7020636F70
:10E1E00064652020202020696E73747275637469E1
:10E1F0006F6E2061646472202020496E74657272B3
:10E20000757074006E6F20766563746F7200726A49
:10E210006D702020006A6D70200057686174207056
:10E220006F72743A00506F7274206E6F7420737541
:10E2300070706F72746564004D7573742062652030
:10E2400061206C6574746572002000577269747483
:10E25000696E672045450052656164696E672045B7
:10E26000450045452065727220636E743D00504F35
:10E27000525400303D5A65726F2061646472003FF1
:10E280003D43505520737461747300403D454550C3
:10E29000524F4D207465737400423D426C696E6B41
:10E2A000204C454400453D44756D70204545505215
:10E2B0004F4D00463D44756D7020464C415348001B
:10E2C000483D48656C70004C3D4C69737420492F83
:10E2D0004F20506F72747300513D51756974005234
:10E2E0003D44756D702052414D00563D73686F7707
:10E2F00020696E7465727275707420566563746FF0
:10E30000727300593D506F727420626C696E6B00BD
:10E310002A0011241FBECFEFD1E2DEBFCDBF01E046
:10E320000CBF12E0A0E0B2E0EEE1FDEF03E00BBFB6
:10E3300002C007900D92A030B107D9F712E0A0E01B
:10E34000B2E001C01D92AE30B107E1F70F9460F367
:10E350000D948DFE01E20EBF0FEF0DBF11241FBE05
:10E360000D9460F30D9400F020E030E040ED57E0B4
:10E3700005C0FA013197F1F72F5F3F4F2817390792
:10E38000C0F308959C01260F311DC901A0E0B0E043
:10E390002F5F3F4FABBFFC018791882361F08093D3
:10E3A000C6008091C00086FFFCCF8091C0008064D1
:10E3B0008093C000EACF08958DE08093C6008091DD
:10E3C000C00086FFFCCF8091C00080648093C000B5
:10E3D0008AE08093C6008091C00086FFFCCF8091C8
:10E3E000C00080648093C00008950F94C2F10F9420
:10E3F000DCF10895FC019081992359F09093C600B7
:10E400008091C00086FFFCCF8091C0008064809323
:10E41000C0003196992379F70895282F982F929567
:10E420009F70892F805D8A3308F0895F8093C600D2
:10E430008091C00086FFFCCF8091C00080648093F3
:10E44000C000822F8F70982F905D9A3308F0995FEB
:10E450009093C6008091C00086FFFCCF8091C000E1
:10E4600080648093C00008959C01FB01853691056E
:10E470001CF46330710594F0C90164E670E00F94F8
:10E480002EFE605D7F4F6093C6008091C00086FFC6
:10E49000FCCF8091C00080648093C0002B30310598
:10E4A00014F43297B4F0C90164E670E00F942EFEC4
:10E4B0006AE070E00F942EFE605D7F4F6093C600AF
:10E4C0008091C00086FFFCCF8091C0008064809363
:10E4D000C000C9016AE070E00F942EFEC0968093E0
:10E4E000C6008091C00086FFFCCF8091C000806490
:10E4F0008093C00008951F93182F8EE692EE60E07F
:10E500000F94C2F11093C6008091C00086FFFCCF2B
:10E510008091C00080648093C0000F94DCF11F9153
:10E5200008952F923F924F925F926F927F928F92B7
:10E530009F92AF92BF92CF92DF92EF92FF920F9392
:10E540001F93DF93CF93CDB7DEB762970FB6F894E2
:10E55000DEBF0FBECDBF382E622ECA01DB015C01CB
:10E560006D01772420E2222E2E010894411C511CBB
:10E570008BC081E0A81680E0B80681E0C80680E084
:10E58000D80628F0C601AA27BB270F940DF2BB2797
:10E59000AD2D9C2D8B2D0F940DF28A2D0F940DF225
:10E5A0002092C6008091C00086FFFCCF8091C00001
:10E5B00080648093C0009DE29093C6008091C0006B
:10E5C00086FFFCCF8091C00080648093C0002092C1
:10E5D000C6008091C00086FFFCCF8091C00080649F
:10E5E0008093C00019828601750188249924A1E0D6
:10E5F0003A1651F03A1620F0B2E03B1661F409C029
:10E600000BBFF701779007C0C7010F9477FE782EF4
:10E6100002C0F7017080872D0F940DF22092C60082
:10E620008091C00086FFFCCF8091C0008064809301
:10E63000C000872D8052F401EF70F0708F3520F408
:10E64000E40DF51D708204C0E40DF51D8EE280839B
:10E650000894E11CF11C011D111D0894811C911CE2
:10E6600090E18916910409F0C2CF80E190E0A0E02A
:10E67000B0E0A80EB91ECA1EDB1E198AC2010F9493
:10E68000FAF10F94DCF16A94662009F072CF629679
:10E690000FB6F894DEBF0FBECDBFCF91DF911F91B3
:10E6A0000F91FF90EF90DF90CF90BF90AF909F9031
:10E6B0008F907F906F905F904F903F902F90089534
:10E6C0002F923F924F925F926F927F928F929F9282
:10E6D000AF92BF92CF92DF92EF92FF920F931F9370
:10E6E000DF93CF93CDB7DEB7CD53D1400FB6F894BB
:10E6F000DEBF0FBECDBF01E20EBF0FEF0DBF94B75F
:10E70000F894A89514BE80916000886180936000A1
:10E7100010926000789493FF05C0E0910002F091A0
:10E7200001021995279A2F9A8091C00082608093E8
:10E73000C00080E18093C40088E18093C1000000A4
:10E74000EE24FF24870144E0A42EB12CCC24DD2448
:10E7500024C0C5010197F1F70894E11CF11C011DCB
:10E76000111D21E2E2162EE4F20620E0020720E06D
:10E77000120718F031E0C32ED12CC801B70127ECE5
:10E780003BE140E050E00F9441FE611571058105C9
:10E79000910519F485B1805885B98091C00087FD35
:10E7A00003C0C114D104A9F2A6014F5F5F4FC25E3E
:10E7B000DE4F59834883CE51D140C25EDE4F8881FF
:10E7C0009981CE51D140019711F00D9410FEC05D9A
:10E7D000DE4F19821882C053D14060E0C15DDE4F28
:10E7E0001882CF52D14088249924C35DDE4F19820C
:10E7F0001882CD52D140C05EDE4F188219821A8233
:10E800001B82C052D140CE5CDE4F188219821A8220
:10E810001B82C253D140EE24FF2487010BBFF701B6
:10E8200007911691C45CDE4F19830883CC53D14005
:10E830000D940BFEC25EDE4F28813981CE51D1404E
:10E840002130310509F52091C600C25EDE4F1982E4
:10E850001882CE51D14022C02F5F3F4F4F4F5F4FA4
:10E86000213082E138078AE7480780E0580780F0C6
:10E87000C45CDE4FE881F981CC53D140EF5FFF4F9C
:10E8800019F0EE27FF27099420E030E040E050E047
:10E890008091C00087FFE0CF2091C600C35DDE4FAE
:10E8A00048815981CD52D1404F5F5F4FC35DDE4FEC
:10E8B00059834883CD52D140213209F063C64A3092
:10E8C000510508F05FC60894811C911C53E0851621
:10E8D000910409F059C600E010E018C081E280936D
:10E8E000C6008091C00086FFFCCF8091C00080648C
:10E8F0008093C0002F5F3F4F2931310579F70F9486
:10E90000DCF10F5F1F4F0530110519F020E030E0FA
:10E91000E5CF10920A0210920B0210920C02109294
:10E920000D02109206021092070210920802109235
:10E930000902109202021092030210920402109235
:10E9400005028FEE90EE60E00F94F5F180E191EE1C
:10E9500060E00F94C2F18091C00087FFFCCF9091DE
:10E96000C600903608F09F759032B8F09093C600BC
:10E970008091C00086FFFCCF8091C00080648093AE
:10E98000C000A0E2A093C6008091C00086FFFCCF2B
:10E990008091C00080648093C000983409F4D7C18E
:10E9A0009934B8F4923409F459C1933458F490333B
:10E9B00019F1903308F4E3C59F33A1F1903409F0C5
:10E9C000DEC5BDC0953409F470C1963409F0D7C5D1
:10E9D00098C1923509F42BC2933538F49C3409F46C
:10E9E000F5C1913509F0CBC518C2963509F445C279
:10E9F000993509F0C4C567C483E792EE62E00F94CD
:10EA0000F5F110920602109207021092080210927D
:10EA1000090210920A0210920B0210920C0210923C
:10EA20000D0213C18FE792EE62E00F94F5F18FEEC5
:10EA300090EE60E00F94F5F181E291EE60E00F94CA
:10EA4000C2F187EB91EE60E00F94F5F180E391EE77
:10EA500060E00F94C2F184EE90EE60E00F94F5F167
:10EA60008FE391EE60E00F94C2F186E090E061E008
:10EA700070E00F9434F20F94DCF18DE591EE60E0DC
:10EA80000F94C2F189EC91EE60E00F94F5F18EE401
:10EA900091EE60E00F94C2F183EC91EE60E00F9490
:10EAA000F5F18CE691EE60E00F94C2F18EE10F94E7
:10EAB0000DF288E90F940DF281E00F940DF20F949E
:10EAC000DCF18BE791EE60E00F94C2F119E0E0E039
:10EAD000F0E010935700E4918E2F0F940DF20F94F5
:10EAE000DCF18AE891EE60E00F94C2F1E3E0F0E03F
:10EAF00010935700E4918E2F0F940DF20F94DCF1D8
:10EB000089E991EE60E00F94C2F1E2E0F0E0109349
:10EB10005700E4918E2F0F940DF20F94DCF188EAE8
:10EB200091EE60E00F94C2F1E1E0F0E01093570045
:10EB30001491812F0F940DF20F94DCF107CF8BE825
:10EB400092EE62E00F94F5F18BE492EE60E00F94A8
:10EB5000F5F10F94DCF100E010E019C0C8016F2D51
:10EB60000F947FFEFF2031F489E492EE60E00F9471
:10EB7000C2F10BC0F092C6008091C00086FFFCCFAE
:10EB80008091C00080648093C0000F5F1F4FC80158
:10EB900081519F41A0E0B0E0ABBFFC01F790BAE229
:10EBA000FB1621F0E2E000301E07C1F60F94DCF105
:10EBB0000F94DCF187E592EE60E00F94F5F10F948D
:10EBC000DCF1CC24DD2400E010E01EC0C8010F946D
:10EBD00077FEF82E882331F489E492EE60E00F94FA
:10EBE000C2F10BC08093C6008091C00086FFFCCFAD
:10EBF0008091C00080648093C000FE1419F00894D6
:10EC0000C11CD11C0F5F1F4FC80181519F41A0E063
:10EC1000B0E0ABBFFC01E790FAE2EF1621F022E092
:10EC20000030120799F60F94DCF10F94DCF182E6C4
:10EC300092EE60E00F94C2F1C60161E070E00F94C3
:10EC400034F20F94DCF10F94DCF110920202109276
:10EC50000302109204021092050278CE89E992EE26
:10EC600062E00F94F5F1279A2F9A16C02F9880E052
:10EC700090E0E0EDF7E03197F1F7019684369105E9
:10EC8000C1F72F9A80E090E0E0EDF7E03197F1F7DF
:10EC9000019684369105C1F78091C00087FFE6CFC9
:10ECA0008091C00087FFFCCF64C485EA92EE62E0E9
:10ECB0000F94F5F140910202509103026091040219
:10ECC0007091050281E020E10F9491F2809102029F
:10ECD00090910302A0910402B091050280509F4FD1
:10ECE000AF4FBF4F8093020290930302A0930402A0
:10ECF000B093050280509041A040B04008F426CE69
:10ED0000A4CF83EB92EE62E00F94F5F140910602FE
:10ED100050910702609108027091090280E020E1A1
:10ED20000F9491F28091060290910702A09108023F
:10ED3000B091090280509F4FAF4FBF4F80930602A2
:10ED400090930702A0930802B0930902FFCD80ECD4
:10ED500092EE62E00F94F5F183E792EE60E00F949B
:10ED6000F5F18FE792EE60E00F94F5F18BE892EE0B
:10ED700060E00F94F5F189E992EE60E00F94F5F10F
:10ED800085EA92EE60E00F94F5F183EB92EE60E09D
:10ED90000F94F5F180EC92EE60E00F94F5F187ECC2
:10EDA00092EE60E00F94F5F188ED92EE60E00F9442
:10EDB000F5F18FED92EE60E00F94F5F18AEE92EEB0
:10EDC00060E00F94F5F183E093EEBDCD87EC92EE19
:10EDD00062E00F94F5F181E40F947BF282E40F94EA
:10EDE0007BF283E40F947BF284E40F947BF285E45E
:10EDF0000F947BF286E40F947BF287E40F947BF20E
:10EE000088E40F947BF28AE40F947BF28BE40F94F6
:10EE10007BF28CE40F947BF299CD88ED92EE62E068
:10EE20000F94F5F1772473948824992409C48FED05
:10EE300092EE62E00F94F5F140910A0250910B02BC
:10EE400060910C0270910D0282E020E10F9491F22A
:10EE500080910A0290910B02A0910C02B0910D02D8
:10EE600080509F4FAF4FBF4F80930A0290930B0289
:10EE7000A0930C02B0930D0269CD8AEE92EE62E08F
:10EE80000F94F5F184EE90EE60E00F94F5F18FECC5
:10EE900091EE60E00F94F5F1662477244301CC5D98
:10EEA000DE4F19821882C452D140D401C301B695F5
:10EEB000A79597958795CA5DDE4F88839983AA8326
:10EEC000BB83C652D140CC5DDE4FA881B981C4520C
:10EED000D1401196CC5DDE4FB983A883C452D14096
:10EEE000CD0162E070E00F9434F2B0E2B093C6005E
:10EEF0008091C00086FFFCCF8091C0008064809329
:10EF0000C000EDE2E093C6008091C00086FFFCCF18
:10EF10008091C00080648093C000F0E2F093C6004E
:10EF20008091C00086FFFCCF8091C00080648093F8
:10EF3000C000CA5DDE4FE880F9800A811B81C6529D
:10EF4000D140BB27A12F902F8F2D0F940DF2CA5DBA
:10EF5000DE4F8881C652D1400F940DF2B0E2FB2EF5
:10EF6000F092C6008091C00086FFFCCF8091C00067
:10EF700080648093C0000DE30093C6008091C000C0
:10EF800086FFFCCF8091C00080648093C00010E2B7
:10EF90001093C6008091C00086FFFCCF8091C00016
:10EFA00080648093C0008BBEF3012791C65DDE4F65
:10EFB0002883CA52D140A22EBB24CC24DD2408943D
:10EFC000611C711C811C911C8BBEF3018791282E42
:10EFD0003324442455240894611C711C811C911C09
:10EFE0008BBEF3013791C55DDE4F3883CB52D140E4
:10EFF0000894611C711C811C911C8BBEF30147910C
:10F00000C45DDE4F4883CC52D140ADEFEA2EAFEF66
:10F01000FA2EAFEF0A2FAFEF1A2F6E0C7F1C801E57
:10F02000911E142D032DF22CEE24EA0CFB1C0C1D5A
:10F030001D1D0F940DF220E22093C6008091C000A8
:10F0400086FFFCCF8091C00080648093C000C65DC5
:10F05000DE4F8881CA52D1400F940DF230E23093D6
:10F06000C6008091C00086FFFCCF8091C000806404
:10F070008093C000C45DDE4F8881CC52D1400F9494
:10F080000DF240E24093C6008091C00086FFFCCFA5
:10F090008091C00080648093C000C55DDE4F888190
:10F0A000CB52D1400F940DF250E25093C6008091A4
:10F0B000C00086FFFCCF8091C00080648093C000B8
:10F0C0008FEFE8168FEFF80680E0080780E018075A
:10F0D00031F484E092EE60E00F94C2F1DFC0D80119
:10F0E000C7018070907CA070B0708050904CA040A0
:10F0F000B040D1F52FEF3FE340E050E0E222F322B1
:10F1000004231523CA5DDE4FA880B980CA80DB8046
:10F11000C652D140AE0CBF1CC01ED11EAA0CBB1CD7
:10F12000CC1CDD1C8EE092EE60E00F94C2F1BB2798
:10F13000A12F902F8F2D0F940DF28E2D0F940DF285
:10F1400030E23093C6008091C00086FFFCCF8091F2
:10F15000C00080648093C0004EE34093C60080915D
:10F16000C00086FFFCCF87C08EE09EEFA0E0B0E03D
:10F17000E822F9220A231B239CE0E91694E9F90608
:10F1800090E0090790E0190709F088C0C45DDE4FE0
:10F19000A881CC52D140EA2EFF2400E010E0102FCD
:10F1A0000F2DFE2CEE24C55DDE4FB881CB52D14031
:10F1B000EB0EF11C011D111DD601C501817090706F
:10F1C000A070B070DC0199278827E80EF91E0A1F8D
:10F1D0001B1F20EF30E040E050E0A222B322C42207
:10F1E000D52241E1AA0CBB1CCC1CDD1C4A95D1F7F1
:10F1F000EA0CFB1C0C1D1D1D81E090E0A0E0B0E0BE
:10F20000282239224A225B2235E1220C331C441C7D
:10F21000551C3A95D1F7E20CF31C041D151D57013E
:10F220006801AA0CBB1CCC1CDD1C85E192EE60E0E1
:10F230000F94C2F1C801AA27BB270F940DF2BB2778
:10F24000A12F902F8F2D0F940DF28E2D0F940DF274
:10F2500090E29093C6008091C00086FFFCCF809121
:10F26000C00080648093C000AEE3A093C60080918C
:10F27000C00086FFFCCF8091C00080648093C000F6
:10F28000C601AA27BB270F940DF2BB27AD2D9C2DDD
:10F290008B2D0F940DF28A2D0F940DF20F94DCF14B
:10F2A000CC5DDE4FE881F981C452D140F99709F471
:10F2B0004DCBF4E0EF2EF12C012D112D6E0C7F1CA7
:10F2C000801E911EF2CD83E093EE62E00F94F5F183
:10F2D0008AE192EE60E00F94C2F18091C00087FF56
:10F2E000FCCF1091C6001F751093C6008091C0001E
:10F2F00086FFFCCF8091C00080648093C0000F9493
:10F30000DCF1812F81548A3108F036C1163409F4BA
:10F3100095C0173490F4133409F44EC0143430F40B
:10F320001134F1F0123409F01DC130C0143409F465
:10F3300059C0153409F016C16BC01A3409F4C4C0A1
:10F340001B3438F4173409F48FC0183409F00AC19B
:10F35000A1C01B3409F4D2C01C3409F003C1E8C0B9
:10F360008FEF81B90DC082B1809582B980E090E0C5
:10F37000E0EDF7E03197F1F70196883C9105C1F790
:10F380008091C00087FFEFCF12B8EFC08FEF84B934
:10F390000DC085B1809585B980E090E0E0EDF7E0A3
:10F3A0003197F1F70196883C9105C1F78091C00033
:10F3B00087FFEFCF15B8D9C08FEF87B90DC088B1DF
:10F3C000809588B980E090E0E0EDF7E03197F1F7C3
:10F3D0000196883C9105C1F78091C00087FFEFCF6F
:10F3E00018B8C3C08FEF8AB90DC08BB180958BB9A7
:10F3F00080E090E0E0EDF7E03197F1F70196883C8E
:10F400009105C1F78091C00087FFEFCF1BB8ADC059
:10F410008FEF8DB90DC08EB180958EB980E090E0F0
:10F42000E0EDF7E03197F1F70196883C9105C1F7DF
:10F430008091C00087FFEFCF1EB897C08FEF80BBD1
:10F440000DC081B3809581BB80E090E0E0EDF7E0F6
:10F450003197F1F70196883C9105C1F78091C00082
:10F4600087FFEFCF11BA81C08FEF83BB0DC084B38C
:10F47000809584BB80E090E0E0EDF7E03197F1F714
:10F480000196883C9105C1F78091C00087FFEFCFBE
:10F4900014BA6BC08FEF809301010FC080910201FD
:10F4A00080958093020180E090E0E0EDF7E03197F5
:10F4B000F1F70196883C9105C1F78091C00087FF64
:10F4C000EDCF1092020151C08FEF809304010FC065
:10F4D0008091050180958093050180E090E0E0ED4A
:10F4E000F7E03197F1F70196883C9105C1F78091DB
:10F4F000C00087FFEDCF1092050137C08FEF8093DA
:10F5000007010FC08091080180958093080180E079
:10F5100090E0E0EDF7E03197F1F70196883C910536
:10F52000C1F78091C00087FFEDCF109208011DC088
:10F530008FEF80930A010FC080910B01809580931B
:10F540000B0180E090E0E0EDF7E03197F1F70196F4
:10F55000883C9105C1F78091C00087FFEDCF1092E4
:10F560000B0103C085E292EEEEC98091C00087FFD7
:10F57000FCCF8091C600EAC988E392EEE4C98CE131
:10F5800091EEE1C988249924933011F1943028F444
:10F59000913089F09230B8F408C0953061F195301F
:10F5A000F0F0963009F048C043C02B3109F042C951
:10F5B00091E06BE13FC96227C15DDE4F2883CF52E6
:10F5C000D14092E037C9B22FA0E0622793E032C960
:10F5D000822F90E0A82BB92B622794E02BC92E3004
:10F5E00009F039C3622795E0C05DDE4F19821882A9
:10F5F000C053D1401FC9E1E0F0E0EC0FFD1FC05D3A
:10F60000DE4F08811981C053D140E00FF11F2083E4
:10F610000F5F1F4FC05DDE4F19830883C053D14079
:10F6200062270A171B0709F005C9D80196E002C92D
:10F63000261709F010C303C0973009F0FBC87724E0
:10F640009981933109F412C19431C8F4963009F4C8
:10F65000D8C0973050F4923009F406C1933009F4C1
:10F660006DC0913009F059C253C0913109F477C08F
:10F67000923108F0BBC0903109F04FC2F5C098310B
:10F6800009F487C0993150F4953109F4EFC09531F0
:10F6900008F4C6C1963109F040C2C2C19A3109F4DA
:10F6A0006CC09A3108F491C09B3109F45BC09D3164
:10F6B00009F033C29D81903359F48F81882311F46E
:10F6C0009EE11CC0813011F091E018C098E916C08D
:10F6D000892F807591F0903539F4E0E0F0E089E011
:10F6E0008093570094910AC0983539F4E3E0F0E034
:10F6F00089E080935700949101C090E01A821B82A8
:10F700008D818C831D829E831F8227E030E009C299
:10F710001A8288E08B8381E48C8386E58D8382E581
:10F720008E8389E48F8383E5888780E589878FE5E9
:10F730008A8782E38B872BE030E0F3C18A818139AD
:10F7400041F0823941F0803911F48FE005C080E04A
:10F7500003C082E001C08AE01A828B8344C0772410
:10F76000739482C08D81882311F48EE12CC0813086
:10F7700011F081E028C088E926C01A82E1E0F0E0BB
:10F7800089E08093570084918B831C8224E030E0D1
:10F79000C8C18B81803589F48C81883039F4E2E0EE
:10F7A000F0E089E08093570084910DC0E0E0F0E044
:10F7B00089E080935700849106C0E3E0F0E089E09F
:10F7C0008093570084911A82DFCF8D81836C99E0FA
:10F7D000E1E0F0E0082E90935700E89507B600FCB2
:10F7E000FDCF1A821B8223E030E09BC180EC8A832C
:10F7F000CE5CDE4F188219821A821B82C253D1401E
:10F800008EC18A8190E0A0E0B0E0582F44273327D2
:10F8100022278B8190E0A0E0B0E0DC0199278827C7
:10F82000282B392B4A2B5B2B8D8190E0A0E0B0E098
:10F83000282B392B4A2B5B2B8C8190E0A0E0B0E089
:10F84000BA2FA92F982F8827282B392B4A2B5B2BCF
:10F85000220F331F441F551FC05EDE4F288339839C
:10F860004A835B83C052D1401A8259C13A81C95C34
:10F87000DE4F3883C753D140CA5CDE4F1882C6536F
:10F88000D1408B81C82EDD24CA5CDE4F488159816E
:10F89000C653D140C42AD52A933109F082C0CE5C28
:10F8A000DE4F88819981AA81BB81C253D1408050AB
:10F8B000904CA340B04030F583E0CE5CDE4FE88052
:10F8C000F9800A811B81C253D140F70100935B008C
:10F8D00080935700E89507B600FCFDCFCE5CDE4F65
:10F8E000088119812A813B81C253D14000501F4FAA
:10F8F0002F4F3F4FCE5CDE4F088319832A833B8313
:10F90000C253D140C05EDE4F488159816A817B81FC
:10F91000C052D140DE011B9631E08C9111962C91A2
:10F9200011971296C75CDE4F2883C953D140C85C3B
:10F93000DE4F1882C853D14090E0C85CDE4FE881AA
:10F94000F981C853D1408E2B9F2B0C01FA01609393
:10F950005B0030935700E89511244E5F5F4F6F4F67
:10F960007F4F0EEFE02E0FEFF02ECE0CDF1CC114F8
:10F97000D10499F685E0C05EDE4F088119812A81A5
:10F980003B81C052D140F80120935B008093570027
:10F99000E89507B600FCFDCF81E180935700E8951C
:10F9A00035C0C05EDE4F88819981AA81BB81C0527B
:10F9B000D140B695A795979587957C018601ABE0D8
:10F9C000AA2EB12CAC0EBD1E0BC0D5016D915D01F0
:10F9D000C7010F947FFE0894E11CF11C01501040F8
:10F9E0000115110591F7A60160E070E0440F551F65
:10F9F000661F771FC05EDE4FE880F9800A811B8199
:10FA0000C052D1404E0D5F1D601F711F1A82C05E33
:10FA1000DE4F488359836A837B83C052D1407FC0C5
:10FA2000FA80C55CDE4FF882CB53D140C65CDE4F16
:10FA30001882CA53D1408B81C82EDD24C65CDE4FAC
:10FA400008811981CA53D140C02AD12A1A828981DA
:10FA5000BE016D5F7F4F843121F59601C05EDE4FA0
:10FA6000E880F9800A811B81C052D1400BBFF701A9
:10FA700087919691DB018C9311969C936E5F7F4FDB
:10FA8000D801C7010296A11DB11DC05EDE4F88835B
:10FA90009983AA83BB83C052D14022503040F1F6F3
:10FAA00036C0C05EDE4F288139814A815B81C052F9
:10FAB000D1400894C108D108760100E010E0089414
:10FAC000C11CD11C0894E11CF11C011D111DE20E8A
:10FAD000F31E041F151F21BDBB27A52F942F832FB5
:10FAE00082BD2F5F3F4F4F4F5F4FF89A80B5DB01CC
:10FAF0008D93BD012E153F054007510761F7C05E8C
:10FB0000DE4F288339834A835B83C052D1409601FC
:10FB10002D5F3F4FFB01108204C080EC8A8322E0FE
:10FB200030E08BE18093C6008091C00086FFFCCF5F
:10FB30008091C00080648093C000C15DDE4FF88179
:10FB4000CF52D140F093C6008091C00086FFFCCF19
:10FB50008091C00080648093C000432F3093C60022
:10FB60008091C00086FFFCCF8091C00080648093AC
:10FB7000C000922F2093C6008091C00086FFFCCF6A
:10FB80008091C00080648093C0008EE08093C600A6
:10FB90008091C00086FFFCCF8091C000806480937C
:10FBA000C00065E1C15DDE4FE880CF52D1406E25D7
:10FBB00069276427FE01319610C090819093C6009A
:10FBC0008091C00086FFFCCF31968091C000806498
:10FBD0008093C0006927215030402115310569F715
:10FBE0006093C6008091C00086FFFCCF8091C0006A
:10FBF00080648093C00085B1805885B9772081F4F6
:10FC0000C15DDE4F0881CF52D1400F5FC15DDE4F35
:10FC10000883CF52D14090E0A0E0B0E00D941AF4F8
:10FC200027982F9880E090E020ED37E0F901319798
:10FC3000F1F7019684369105C9F700008091C00064
:10FC40008D7F8093C00081E180935700E895EE2777
:10FC5000FF270994FFCF90E00D941AF497FB092E2B
:10FC600007260AD077FD04D02ED006D000201AF443
:10FC7000709561957F4F0895F6F7909581959F4F08
:10FC80000895A1E21A2EAA1BBB1BFD010DC0AA1FDD
:10FC9000BB1FEE1FFF1FA217B307E407F50720F0F5
:10FCA000A21BB30BE40BF50B661F771F881F991F70
:10FCB0001A9469F760957095809590959B01AC01B9
:10FCC000BD01CF010895AA1BBB1B51E107C0AA1FAC
:10FCD000BB1FA617B70710F0A61BB70B881F991FED
:10FCE0005A95A9F780959095BC01CD010895F99991
:10FCF000FECF92BD81BDF89A992780B50895262F31
:10FD0000F999FECF1FBA92BD81BD20BD0FB6F89400
:0EFD1000FA9AF99A0FBE01960895F894FFCF63
:040000033000E000E9
:00000001FF
